:0400000098EF0AF07B
:1000080000C018F001C017F002C016F003C015F0C8
:10001800E1CF1BF0E2CF1CF0E9CF19F0EACF1AF0DC
:10002800310E556E000E566EFCEC06F018C000F04E
:1000380017C001F016C002F015C003F019C0E9FF9F
:0E0048001AC0EAFF1BC0E1FF1CC0E2FF11005E
:100056000B820BAE35EF00F003680268016800689A
:080066000A360232FF0E1200FF
:08006E000AAE029E000E120012
:100076000B840BAE46EF00F0010E036E026A016AB6
:0A008600006A0A360232FF0E120073
:0E009000026A016A006A086A036A000E120022
:10009E000CB091EF00F00CA237EF01F00E6A000EDB
:1000AE000264A8EF00F0F00E0214D8A473EF00F073
:1000BE00023A01380F0B02260138F00B016E0038A0
:1000CE000F0B01260038F00B006E08380F0B0026C0
:1000DE000838F00B086E0E84D89002BE8CEF00F03C
:1000EE0008360036013602360E2A02BE8CEF00F0BC
:1000FE0008360036013602360E2A02BE8CEF00F0AC
:10010E0008360036013602360E2A0E5003642DEFE5
:10011E0001F0035E0BBC08AE32EF01F0D880800E0A
:10012E0008640030000E002201220222D8A032EF15
:10013E0001F0023201320032034A37EF01F032EFA2
:10014E0001F001C002F000C001F008C000F0086A22
:10015E00000E0E860264DFEF00F0F00E0214D8A43B
:10016E00C7EF00F0023A01380F0B02260138F00BF0
:10017E00016E00380F0B01260038F00B006E0E8456
:10018E00D89002BE8CEF00F00036013602360E2AF1
:10019E0002BE8CEF00F00036013602360E2A02BE89
:1001AE008CEF00F00036013602360E2A8CEF00F08E
:1001BE0001C002F000C001F0006A000E0E960E881B
:1001CE0002640CEF01F0F00E0214D8A4F7EF00F069
:1001DE00023A01380F0B02260138F00B016E0E8425
:1001EE00D89002BE8CEF00F0013602360E2A02BE07
:1001FE008CEF00F0013602360E2A02BE8CEF00F0B4
:10020E00013602360E2A8CEF00F001C002F0016AB0
:10021E00000E0E8602643CEF01F0F00E0214D8A41C
:10022E001BEF01F0023A0E84D89002BE8CEF00F064
:10023E0002360E2A02BE8CEF00F002360E2A02BEE5
:10024E008CEF00F002360E2A8CEF00F0010E0C6ED1
:10025E000BDF3FEF01F0020E0C6E02DF3FEF01F0FD
:10026E00040E0C6EF1DE3FEF01F0080E0C6E09DF8E
:02027E0012006C
:10028000025006180E6E086A096A0B6A035007646A
:1002900033EF02F006500A6E068E028E03500B6E8C
:1002A0000750036E000E0B6483EF01F00B50075EE6
:1002B000D8B424EF02F0070E0764F2EF01F0075EF6
:1002C00000C008F001C000F002C001F0026A074E51
:1002D00024EF02F00764C7EF01F0075E00C008F0EA
:1002E00001C000F0016A074E24EF02F00764A5EF99
:1002F00001F0075E00C008F0006A074E24EF02F02C
:1003000007648CEF01F00AC002F005C001F004C0E0
:1003100000F0086A4DEF03F0030E076497EF01F059
:10032000075E08380F0B086E074E24EF02F0D890D6
:100330000832074E24EF02F0D8900832074E24EF1F
:1003400002F0D890083224EF02F0030E0764B6EFF3
:1003500001F0075E08380F0B086E0038F00B082616
:1003600000380F0B006E074E24EF02F0D8900032D9
:100370000832074E24EF02F0D89000320832074EC0
:1003800024EF02F0D8900032083224EF02F0030E7E
:100390000764DEEF01F0075E08380F0B086E0038C7
:1003A000F00B082600380F0B006E0138F00B00260A
:1003B00001380F0B016E074E24EF02F0D890013286
:1003C00000320832074E24EF02F0D890013200329A
:1003D0000832074E24EF02F0D89001320032083282
:1003E00024EF02F0030E07640FEF02F0075E0838F7
:1003F0000F0B086E0038F00B082600380F0B006E4C
:100400000138F00B002601380F0B016E0238F00B9B
:10041000012602380F0B026E074E24EF02F0D8902F
:100420000232013200320832074E24EF02F0D89037
:100430000232013200320832074E24EF02F0D89027
:100440000232013200320832096A000E0EAE18EF95
:1004500003F0081E001E011E021E082A00220122AF
:10046000022218EF03F00750D8A439EF02F04DEF45
:1004700003F0096A02C00AF0028E068E0750035C80
:10048000076ED8B40BEF03F0070E0764D9EF02F044
:10049000075E0450096E0550046E0650056E066A2C
:1004A000074E0BEF03F0070E0764AEEF02F0075E96
:1004B0000450096E0550046E056A074E0BEF03F0F9
:1004C000070E07648CEF02F0075E0450096E046AA1
:1004D000074E0BEF03F0070E076473EF02F00AC03C
:1004E00002F04DEF03F0030E07647EEF02F0075EAB
:1004F00009380F0B096E074E0BEF03F0D890093245
:10050000074E0BEF03F0D8900932074E0BEF03F0C4
:10051000D89009320BEF03F0030E07649DEF02F051
:10052000075E09380F0B096E0438F00B09260438F2
:100530000F0B046E074E0BEF03F0D8900432093214
:10054000074E0BEF03F0D89004320932074E0BEF41
:1005500003F0D890043209320BEF03F0030E076466
:10056000C5EF02F0075E09380F0B096E0438F00B77
:10057000092604380F0B046E0538F00B04260538E5
:100580000F0B056E074E0BEF03F0D89005320432C7
:100590000932074E0BEF03F0D890053204320932CE
:1005A000074E0BEF03F0D8900532043209320BEFFF
:1005B00003F0030E0764F6EF02F0075E09380F0B35
:1005C000096E0438F00B092604380F0B046E053849
:1005D000F00B042605380F0B056E0638F00B0526C8
:1005E00006380F0B066E074E0BEF03F0D89006325D
:1005F000053204320932074E0BEF03F0D890063271
:10060000053204320932074E0BEF03F0D890063260
:10061000053204320932086A000E0EAE18EF03F0FC
:10062000091E041E051E061E092A04220522062292
:1006300009500826045000220550012206500222CB
:100640000EBE2FEF03F0D8A03EEF03F002320132CE
:1006500000320832033E3EEF03F048EF03F0D8B01B
:1006600043EF03F0000E081E001E011E021E082AA2
:100670000022012202220A7E43EF03F0010E0C6EDB
:100680000EDD4FEF03F0020E0C6E09DD4FEF03F0AD
:10069000040E0C6EE0DC4FEF03F0000E0C6E120047
:1006A0000134083609360450085E0550D8A0053CD0
:1006B000095E003601360F0E0C6E0134083609361D
:1006C000045000A006D0085E0550D8A0053C095E85
:1006D00005D008260550D8B0053C0926003601365D
:1006E0000C2EEBD700B006D0045008260550D8B029
:0806F000053C09260000120080
:0806F8000B6A0B86FF0E1200D5
:100700000C6A0E6A0250D8A499EF03F001C002F0FF
:1007100000C001F0006A0E860250D8A499EF03F0E1
:1007200001C002F0016A0E960E880250D8B4ABEFF9
:1007300003F00E50035ED8A4D8A0B0EF03F0D89019
:1007400002BEB5EF03F0003601360236032EA0EFED
:1007500003F0B0EF03F0010E0C6E9ADCB8EF03F07B
:10076000020E0C6E88DCB8EF03F0040E0C6E7FDC1A
:02077000120075
:100772000B800BAEC5EF03F0026A0AAEFF0E026EEB
:0C078200016E006E0A360232FF0E1200FB
:0A078E001D0E0D6E0D2EFED7120099
:0A079800000EACB2010E006E12005C
:0A07A200000E9EBA010E006E120058
:1007AC006ECF01F06BA202D06B986B8801C000F089
:0207BC00120029
:0A07BE00000E6CB2010E006E120076
:0A07C800000EA4BA010E006E12002C
:0E07D200ACB202D00000FCD754C0ADFF120044
:1007E00054C0C9FFC7B002D00000FCD7C9CF00F089
:0207F0001200F5
:1007F200AECF01F0ABA202D0AB98AB8801C000F043
:020802001200E2
:0E0804006CB202D00000FCD754C06DFF120091
:1008120000C008F00150006E016A026A036A0B6AA6
:100822000C6A016A026A036A960E036E0A6A00AED5
:1008320021EF04F0081E001E082AD8B4002A0A8EEE
:1008420000C001F008C000F0086A026A58DF120016
:10085200086A096A000E07620364AEEF04F00250F0
:1008620006180A6E075003267E0ED8A03FEF04F04A
:10087200035ED8B0B3EF04F043EF04F0035ED8A0F8
:10088200B8EF04F0028E068E02C00EF001C00BF02B
:1008920000C00DF000500402F4CF0CF0015005022C
:1008A200F4CF00F0F3CF08F00402F3500C26F4501A
:1008B2000822000E00220D500502F3500C26F450BF
:1008C2000822000E002202500402F3500826F450BF
:1008D200002202500502016A000E0122F350002696
:1008E200F45001220D500602F3500826F450002263
:1008F200026A000E012202220B500602F350002669
:10090200F4500122000E02220E500602F35001267C
:10091200F450022202BE96EF04F008360036013689
:1009220002360306D8B4B8EF04F0A9EF04F0D88079
:10093200800E08640030000E002201220222D8A09C
:10094200A9EF04F0023201320032034AB3EF04F09D
:100952000AAE029E000EBBEF04F0010E48EC00F05E
:10096200BBEF04F0020E2BEC00F0BBEF04F0040E20
:060972003BEC00F0120056
:06097800067E82DC120085
:10097E000B6A0350D8B405EF05F002500A6E028ED2
:10098E008E0E035E03AE09EF05F0036C080E035CDA
:10099E00D8A0E4EF04F0036E013602C001F0026A43
:1009AE00080E035CD8A0E4EF04F0036E0136016A72
:1009BE000350D8A4D890EEEF04F00350D8B4EEEF65
:1009CE0004F0D89002320132032EE8EF04F00BBC93
:1009DE0001A0FBEF04F0D8A0FBEF04F0012AD8B47D
:1009EE00022A02BE18EF05F00AAE1DEF05F0021E38
:1009FE00011E012AD8B4022A1DEF05F0026A016A0F
:100A0E001DEF05F00B800BAE21EF05F0026A0AAE6A
:100A1E0021EF05F0FF0E026E016E0A36023221EF53
:100A2E0005F0010E0C6E9EDE23EF05F0000E0C6E2F
:100A3E0023EF05F0FF0E0C6E0150006E0250016E9A
:020A4E00120094
:100A50000B6A0A6A096A00500402F4CF09F0F3CF66
:100A600008F001500502F4CF0BF0F3CF0AF000506C
:100A70000502F3500926F4500A22E86A0B220150BD
:100A80000402F3500926F4500A22E86A0B2208C037
:100A900000F009C001F00AC002F00BC003F0120020
:100AA00000C008F00B6A0C6A9E0E036E0A6A026AA6
:0E0AB000016A006A020E0C6E4FEC00F012009C
:100ABE000450000A12E10550000A0FE10650000A28
:100ACE000CE10750000A09E1FF0E006EFF0E016EE9
:100ADE007F0E026EFF0E036E1200086A096A07503F
:100AEE00D8B40AEF06F00350D8B40EEF06F0025059
:100AFE0006180A6E028E068E0E6A02C008F001C03B
:100B0E000CF000C00DF004500D5E0550D8A0053C51
:100B1E000C5E0650D8A0063C085E086A0C6A0D6A88
:100B2E00D8A0A1EF05F0D89002320132003208327F
:100B3E00010E0E6E0750035ED8A0AEEF05F07E0ECE
:100B4E000E240326D8B013EF06F0B4EF05F07E0E98
:100B5E000E240326D8A018EF06F0180E0B6E0D36D5
:100B6E000C3608360036013602360E360450005E5C
:100B7E000550D8A0053C015E0650D8A0063C025E8A
:100B8E0006340E120EA0CFEF05F00D80DAEF05F051
:100B9E00045000260550D8B0053C01260650D8B0AA
:100BAE00062802260D900B2EB6EF05F000EF06F08C
:100BBE00D8900036013602360E360450005E0550CF
:100BCE00D8A0053C015E0650D8A0063C025E063455
:100BDE000E10010B0D26D8B00C2AD8B4082AD8A4B2
:100BEE0000EF06F008320C320D32032AD8B413EFA0
:100BFE0006F00AAE089E0850026E0C50016E0D50A3
:100C0E00006E1BEF06F0010E70DD1BEF06F0020EFC
:100C1E0048EC00F01BEF06F0040E2BEC00F01BEF7F
:0A0C2E0006F0080E3BEC00F0120087
:100C38000450000A08E10550000A05E1FF0E006EA5
:100C48007F0E016E12000D6A096A086A01500010D1
:100C5800D8B4000C015005180A6E0ABE0D1E0B6AA6
:100C680005AE05D0041E051E042AD8B4052A01AE17
:100C780005D0001E011E002AD8B4012A0150051013
:100C88000A6E0ABE10D008DD0BB020D00DAE000CE5
:100C9800001E011E002AD8B4012A081E091E082AAF
:100CA800D8B4092A000C05AE0DD001BE07D00150FA
:100CB800096E0050086E016A006AE8D7016A006A86
:100CC800002A000C011E001E0B2ADDD7082AD8B402
:100CD800092A0450085CD8A4D9D70550095CD8A4BF
:100CE800D5D7096A086A002AD8B4012A01AECED736
:060CF8000000FF0C1200D9
:100CFE00C26A070EC012C08E53C000F000360090BC
:100D0E00003600900050C212C2803ADDC282C2A2EA
:100D1E0001D0FDD7C4CF01F0006AC3500012000EFF
:060D2E000112C290120048
:100D3400F250026EF29E0500FF6A0150FE6E0050F2
:080D4400FD6E02BEF28E1200EA
:100D4C00086A080E0C6E003408360450085ED8B0E1
:0E0D5C0002D00826D89000360C2EF5D71200D3
:100D6A00D20E286E070E296E540E2A6E000E2B6EB6
:100D7A00F20E436E070E446E000E456E000E466E6E
:100D8A00A20E3F6E070E406E000E416E000E426EBE
:100D9A00980E246E070E256E000E266E000E276E24
:100DAA00AC8A900EAB6E948E949C9EAA03D0AECF62
:060DBA0000F0FBD712005F
:100DC0000900F5CFE6FF0006FBE10106F9E112009C
:100DD000949A829A010E236E1F6A4BC020F04B50EA
:100DE000960A04E04B50A90A01E005D0010E4B1809
:080DF000206EFF0E1F6E1200C1
:100DF8003FC000F040C001F099DF0052D8B41200A3
:100E080043C000F044C001F091DF00C048F0F3D0C7
:100E18004850960A03E1020E236E496A07D14850EA
:100E2800201804E04850320A01E005D0030E236E72
:100E38004850491A02D0010E236EF8D01F5209E01B
:100E4800400E4814016E0150000A03E1010E236EA2
:100E5800EDD048AE13D0040E236E48C03EF0485083
:100E6800491A030E4814016E01C047F00150000AE8
:100E780002E1050E236E010E4A6E0AD0050E5524B6
:100E8800E16E000E5620E26EFF0EE66E010E236E36
:100E9800CDD04850A90A0BE1050E5524E16E000E8D
:100EA8005620E26EFF0EE66E010E236EBFD04A504A
:100EB800475C006E016A000E015A0050011011E0F3
:100EC8004A04006E016A000E015A00505524E16E72
:100ED80001505620E26E48C0E6FF4850491A4A2A97
:100EE80011D04A04006E016A000E015A00505524C0
:100EF800E16E01505620E26E48C0E6FF050E236EF3
:100F08004850491A93D0491C016E01C049F001505C
:100F1800960A04E04950A90A01E001D0492A49503B
:100F2800481803E1060E236E0AD0050E5524E16E1B
:100F3800000E5620E26EFF0EE66E010E236E76D08E
:100F48004850A90A3FE1010E236E040E5524E16EB4
:100F5800000E5620E26EFF0EE66E030E5524E16E7B
:100F6800000E5620E26E47C0E6FF010E4A6E4A5058
:100F7800475C27E34AC001F0020E006E015004E00E
:100F880000360090FF0FFBD73E50001618E04A04C9
:100F9800006E016A000E015A00505524026E01507D
:100FA8005620036E02C0E9FF03C0EAFF010EEE18E7
:100FB800006E02C0E1FF03C0E2FF00C0E6FF4A2A5C
:100FC800D6D70AD0050E5524E16E000E5620E26EE3
:100FD800FF0EE66E010E236E29D0050E5524E16E34
:100FE800000E5620E26EFF0EE66E010E236E1ED036
:100FF800010E236E1BD02350010AD8B409D7235001
:10100800020AD8B40CD72350030AD8B417D72350F0
:10101800040AD8B43ED72350050AD8B474D723504D
:0E102800060A8EE02350070AD8E0E2D7120035
:10103600010E536E61DE00C021F001C022F0800E69
:101046000118026E800E025C02E1000E005C0CE3E9
:10105600800E2218006E800E005C02E1190E215CE3
:1010660003E2010E316E85D0800E2218006E800ECE
:10107600005C02E1190E215C0BE3800E2218006E63
:10108600800E005C02E1700E215C02E2316A71D0D2
:10109600800E2218006E800E005C02E1700E215C4C
:1010A6000DE3800E2218006E800E010A005C02E13C
:1010B6000E0E215C03E2020E316E5BD0800E22180A
:1010C600006E800E010A005C02E10E0E215C0DE34B
:1010D600800E2218006E800E010A005C02E1C20E2C
:1010E600215C03E2030E316E44D0800E2218006E9E
:1010F600800E010A005C02E1C20E215C0DE3800E47
:101106002218006E800E020A005C02E1800E215C4D
:1011160003E2040E316E2DD0800E2218006E800E72
:10112600020A005C02E1800E215C0DE3800E2218AB
:10113600006E800E030A005C02E15C0E215C03E295
:10114600050E316E16D0800E2218006E800E030A30
:10115600005C02E15C0E215C0CE3800E2218006E3E
:10116600800E040A005C02E1000E215C02E2060E1B
:04117600316E1200C4
:10117A0020C051F01F5203E0010E2018516E828ADE
:10118A004D04506E2AC0E1FF2BC0E2FF960EE66EB8
:10119A0028C000F029C001F0C8DD5150960A04E0C9
:1011AA005150A90A01E002D051704D8C2AC0E1FFCA
:1011BA002BC0E2FF51C0E6FF28C000F029C001F0B1
:1011CA00B4DD4E6A4E50505C32E34E504B24E96E09
:1011DA00000E4C20EA6EEECF01F001C052F0015031
:1011EA00960A04E05250A90A01E01FD04E504B243F
:1011FA00016E000E4C20026E01C0E9FF02C0EAFF38
:10120A00010EEE18006E01C0E1FF02C0E2FF00C04D
:10121A00E6FF4EC001F0040E006E015004E00036F5
:10122A000090FF0FFBD700504D124E2ACBD72AC091
:10123A00E1FF2BC0E2FF4DC0E6FF28C000F029C045
:10124A0001F073DD51504D184F6E4E6A4E50505C8E
:10125A001DE34E504B24006E000E4C20016E00C060
:10126A00D9FF01C0DAFFDE504F1A2AC0E1FF2BC0B6
:10127A00E2FF00C0E9FF01C0EAFFEECFE6FF28C0A7
:10128A0000F029C001F051DD4E2AE0D74F1C016E53
:10129A0001C04FF00150960A04E04F50A90A01E03C
:1012AA0001D04F2A2AC0E1FF2BC0E2FF4FC0E6FF60
:1012BA0028C000F029C001F038DD2AC0E1FF2BC0A8
:1012CA00E2FFA90EE66E28C000F029C001F02DDD6C
:1012DA0024C000F025C001F028DD0050000A01E119
:0612EA00F7D7829A120002
:0A12F0001D4A1E2A1DC033F0120033
:1012FA00030E536EFFDC00C021F001C022F009EC9E
:10130A0004F09A0E046E990E056E010E066E820E98
:10131A00076E29EC04F000C04BF001C04CF002C08B
:10132A004DF003C04EF021C000F022C001F009ECDC
:10133A0004F000C04FF001C050F002C051F003C0E9
:10134A0052F04BC000F04CC001F04DC002F04EC04C
:10135A0003F04FC004F050C005F051C006F052C06F
:10136A0007F029EC04F0000E046E500E056E430ED1
:10137A00066E8F0E076E5FEC05F000C04BF001C0E1
:10138A004CF002C04DF003C04EF0310E006E080E54
:10139A00016E2C0E026E7A0E036E4FC004F050C01E
:1013AA0005F051C006F052C007F029EC04F04BC01A
:1013BA0004F04CC005F04DC006F04EC007F040ECFA
:1013CA0001F05C0E046E8F0E056E420E066E7C0EE8
:1013DA00076E40EC01F0BFEC04F000C02CF001C035
:0813EA002DF000C033F01200E9
:1013F200090E836E0F0E046E2EC000F0A6DC50ECB8
:1014020005F03A0E046E460E056E710E066E820EE1
:10141200076E29EC04F0BFEC04F000C03CF001C000
:101422003DF0120E046E000E056E28EC05F0050E5E
:10143200046E000E056E1CEC06F000C02FF001C019
:0A14420030F000C032F0D66A12004C
:10144C00040E536E56DC00C021F001C022F009ECF2
:10145C0004F0980E046E090E056ED00E066E6C0E1E
:10146C00076E29EC04F000C04BF001C04CF002C038
:10147C004DF003C04EF021C000F022C001F009EC89
:10148C0004F000C04FF001C050F002C051F003C096
:10149C0052F04BC000F04CC001F04DC002F04EC0F9
:1014AC0003F04FC004F050C005F051C006F052C01C
:1014BC0007F029EC04F000C04BF001C04CF002C066
:1014CC004DF003C04EF0290E006E5C0E016E0F0E37
:1014DC00026E7C0E036E4FC004F050C005F051C07C
:1014EC0006F052C007F029EC04F04BC004F04CC0DD
:1014FC0005F04DC006F04EC007F040EC01F05C0E5C
:10150C00046E8F0E056E420E066E7C0E076EBCECE2
:10151C0004F0BFEC04F000C03AF001C03BF000C096
:04152C0033F0120086
:101530001D6A1E6AF80ED56E030ECD6EFF0E926EFA
:10154000949AC16A070EB46E816A836A936A956A37
:10155000670EAF6EAC8409DC030E0B6E080E0C6ECA
:10156000770E0D6E0D2EFED70C2EFCD70B2EFAD754
:10157000A00E4B6E2DDC356A366A376A9D8A9D98BF
:10158000F28CF28E3C6A3D6A2F6A306A0A0ED602ED
:10159000F3CF00F000C02EF000C0CEFF3652D8A42A
:1015A000366A355226E0356A46DD06D04FDF0DD06B
:1015B000A4DE0BD09DDE09D03250010AF7E0325094
:1015C000020AF6E03250040AF5E013DF7D0E316EB8
:1015D000CE6A060E0C6E300E0D6E0D2EFED70C2E42
:1015E000FCD70000310E4B6E000E4C6E030E4D6E9C
:0615F000C4DDC8D7FFD7DF
:020000040030CA
:0D000100220F0E830181FFFFC0FFE0FF40D2
:00000001FF
