:1000000048EF08F00000000000EF00F000000000E2
:0A0010000000000000000000F3D71C
:10001C000B820BAE18EF00F00368026801680068F1
:08002C000A360232FF0E120039
:0E003400026A016A006A086A036A000E12007E
:100042000B840BAE2CEF00F0010E036E026A016A04
:0A005200006A0A360232FF0E1200A7
:08005C000AAE029E000E120024
:100064000CB074EF00F00CA21AEF01F00E6A000E4F
:1000740002648BEF00F0F00E0214D8A456EF00F0E7
:10008400023A01380F0B02260138F00B016E0038DA
:100094000F0B01260038F00B006E08380F0B0026FA
:1000A4000838F00B086E0E84D89002BE6FEF00F093
:1000B40008360036013602360E2A02BE6FEF00F013
:1000C40008360036013602360E2A02BE6FEF00F003
:1000D40008360036013602360E2A0E50036410EF3D
:1000E40001F0035E0BBC08AE15EF01F0D880800E62
:1000F40008640030000E002201220222D8A015EF6D
:1001040001F0023201320032034A1AEF01F015EF16
:1001140001F001C002F000C001F008C000F0086A5C
:10012400000E0E860264C2EF00F0F00E0214D8A492
:10013400AAEF00F0023A01380F0B02260138F00B47
:10014400016E00380F0B01260038F00B006E0E8490
:10015400D89002BE6FEF00F00036013602360E2A48
:1001640002BE6FEF00F00036013602360E2A02BEE0
:100174006FEF00F00036013602360E2A6FEF00F002
:1001840001C002F000C001F0006A000E0E960E8855
:100194000264EFEF00F0F00E0214D8A4DAEF00F0DE
:1001A400023A01380F0B02260138F00B016E0E845F
:1001B400D89002BE6FEF00F0013602360E2A02BE5E
:1001C4006FEF00F0013602360E2A02BE6FEF00F028
:1001D400013602360E2A6FEF00F001C002F0016A08
:1001E400000E0E8602641FEF01F0F00E0214D8A474
:1001F400FEEF00F0023A0E84D89002BE6FEF00F0DA
:1002040002360E2A02BE6FEF00F002360E2A02BE3C
:100214006FEF00F002360E2A6FEF00F0010E0C6E45
:100224000EDF22EF01F0020E0C6E16DF22EF01F05A
:10023400040E0C6EF1DE22EF01F0080E0C6EF8DEF7
:020244001200A6
:100246000134083609360450085E0550D8A0053C2E
:10025600095E003601360F0E0C6E0134083609367B
:10026600045000A006D0085E0550D8A0053C095EE3
:1002760005D008260550D8B0053C092600360136BB
:100286000C2EEBD700B006D0045008260550D8B087
:08029600053C092600001200DE
:10029E00025006180E6E086A096A0B6A035007644C
:1002AE0042EF02F006500A6E068E028E03500B6E5F
:1002BE000750036E000E0B6492EF01F00B50075EB9
:1002CE00D8B433EF02F0070E076401EF02F0075EB9
:1002DE0000C008F001C000F002C001F0026A074E33
:1002EE0033EF02F00764D6EF01F0075E00C008F0AE
:1002FE0001C000F0016A074E33EF02F00764B4EF5D
:10030E0001F0075E00C008F0006A074E33EF02F0FE
:10031E0007649BEF01F00AC002F005C001F004C0B3
:10032E0000F0086A5CEF03F0030E0764A6EF01F01D
:10033E00075E08380F0B086E074E33EF02F0D890A9
:10034E000832074E33EF02F0D8900832074E33EFE3
:10035E0002F0D890083233EF02F0030E0764C5EFB7
:10036E0001F0075E08380F0B086E0038F00B0826F8
:10037E0000380F0B006E074E33EF02F0D8900032AC
:10038E000832074E33EF02F0D89000320832074E93
:10039E0033EF02F0D8900032083233EF02F0030E42
:1003AE000764EDEF01F0075E08380F0B086E00389A
:1003BE00F00B082600380F0B006E0138F00B0026EC
:1003CE0001380F0B016E074E33EF02F0D890013259
:1003DE0000320832074E33EF02F0D890013200326D
:1003EE000832074E33EF02F0D89001320032083255
:1003FE0033EF02F0030E07641EEF02F0075E0838BB
:10040E000F0B086E0038F00B082600380F0B006E2D
:10041E000138F00B002601380F0B016E0238F00B7D
:10042E00012602380F0B026E074E33EF02F0D89002
:10043E000232013200320832074E33EF02F0D8900A
:10044E000232013200320832074E33EF02F0D890FA
:10045E000232013200320832096A000E0EAE27EF68
:10046E0003F0081E001E011E021E082A0022012291
:10047E00022227EF03F00750D8A448EF02F05CEFFA
:10048E0003F0096A02C00AF0028E068E0750035C62
:10049E00076ED8B41AEF03F0070E0764E8EF02F008
:1004AE00075E0450096E0550046E0650056E066A0E
:1004BE00074E1AEF03F0070E0764BDEF02F0075E5A
:1004CE000450096E0550046E056A074E1AEF03F0CC
:1004DE00070E07649BEF02F0075E0450096E046A74
:1004EE00074E1AEF03F0070E076482EF02F00AC000
:1004FE0002F05CEF03F0030E07648DEF02F0075E6F
:10050E0009380F0B096E074E1AEF03F0D890093217
:10051E00074E1AEF03F0D8900932074E1AEF03F088
:10052E00D89009321AEF03F0030E0764ACEF02F015
:10053E00075E09380F0B096E0438F00B09260438D4
:10054E000F0B046E074E1AEF03F0D89004320932E7
:10055E00074E1AEF03F0D89004320932074E1AEF05
:10056E0003F0D890043209321AEF03F0030E076439
:10057E00D4EF02F0075E09380F0B096E0438F00B4A
:10058E00092604380F0B046E0538F00B04260538C7
:10059E000F0B056E074E1AEF03F0D890053204329A
:1005AE000932074E1AEF03F0D890053204320932A1
:1005BE00074E1AEF03F0D8900532043209321AEFC3
:1005CE0003F0030E076405EF03F0075E09380F0B07
:1005DE00096E0438F00B092604380F0B046E05382B
:1005EE00F00B042605380F0B056E0638F00B0526AA
:1005FE0006380F0B066E074E1AEF03F0D890063230
:10060E00053204320932074E1AEF03F0D890063243
:10061E00053204320932074E1AEF03F0D890063233
:10062E00053204320932086A000E0EAE27EF03F0CF
:10063E00091E041E051E061E092A04220522062274
:10064E0009500826045000220550012206500222AD
:10065E000EBE3EEF03F0D8A04DEF03F00232013292
:10066E0000320832033E4DEF03F057EF03F0D8B0DF
:10067E0052EF03F0000E081E001E011E021E082A75
:10068E000022012202220A7E52EF03F0010E0C6EAE
:10069E00E2DC5EEF03F0020E0C6EDDDC5EEF03F0CB
:1006AE00040E0C6EB4DC5EEF03F0000E0C6E120046
:0A06BE001D0E0D6E0D2EFED712006A
:1006C8000900F5CFE6FF0006FBE10106F9E112009B
:1006D8000B800BAE78EF03F0026A0AAEFF0E026ED3
:0C06E800016E006E0A360232FF0E120096
:1006F4000C6A0E6A0250D8A493EF03F001C002F012
:1007040000C001F0006A0E860250D8A493EF03F0F3
:1007140001C002F0016A0E960E880250D8B4A5EF0B
:1007240003F00E50035ED8A4D8A0AAEF03F0D8902B
:1007340002BEAFEF03F0003601360236032E9AEF05
:1007440003F0AAEF03F0010E0C6E72DCB2EF03F0BB
:10075400020E0C6E74DCB2EF03F0040E0C6E7CDC43
:02076400120081
:100766000450000A08E10550000A05E1FF0E006E7C
:100776007F0E016E12000D6A096A086A01500010A8
:10078600D8B4000C015005180A6E0ABE0D1E0B6A7D
:1007960005AE05D0041E051E042AD8B4052A01AEEE
:1007A60005D0001E011E002AD8B4012A01500510EA
:1007B6000A6E0ABE10D044DD0BB020D00DAE000C80
:1007C600001E011E002AD8B4012A081E091E082A86
:1007D600D8B4092A000C05AE0DD001BE07D00150D1
:1007E600096E0050086E016A006AE8D7016A006A5D
:1007F600002A000C011E001E0B2ADDD7082AD8B4D9
:10080600092A0450085CD8A4D9D70550095CD8A495
:10081600D5D7096A086A002AD8B4012A01AECED70C
:060826000000FF0C1200AF
:10082C008C0EF66E110EF76E000EF86E450EE16E24
:10083C00000EE26E200E006E010E016E3FDF43C013
:10084C0000F044C001F0003600900136450E002443
:10085C00E96E000E0120EA6EEECF00F0EECF01F053
:02086C00120078
:10086E0000C008F00150006E016A026A036A0B6A4A
:10087E000C6A016A026A036A960E036E0A6A00AE79
:10088E004FEF04F0081E001E082AD8B4002A0A8E64
:10089E0000C001F008C000F0086A026A24DF1200EE
:1008AE000B6A0C6A0A6A0350D8B48CEF04F00A9EE5
:1008BE00028E860E035E03BE6AEF04F0D8B46AEFB2
:1008CE0004F08FEF04F0036C080E035CD8A078EFF1
:1008DE0004F0036E0236026A0350D8A4D89081EF5A
:1008EE0004F00350D8B481EF04F0D8900232032EF6
:1008FE007CEF04F00BBC02A08CEF04F0D8A08CEFC0
:10090E0004F0022AD8B496EF04F0016A9BEF04F0CB
:10091E000B800BAE9FEF04F0016A9FEF04F0010E07
:10092E000C6ED3DEA1EF04F0000E0C6EA1EF04F0FE
:0A093E00FF0E0C6E0250006E120056
:10094800C26A070EC012C08E43C000F00036009085
:10095800003600900050C212C280ADDEC282C2A230
:1009680001D0FDD7C4CF01F0006AC3500012000EB9
:060978000112C290120002
:10097E00086A096A000E0762036444EF05F002502C
:10098E0006180A6E075003267E0ED8A0D5EF04F087
:10099E00035ED8B049EF05F0D9EF04F0035ED8A09E
:1009AE004EEF05F0028E068E02C00EF001C00BF067
:1009BE0000C00DF000500402F4CF0CF001500502FF
:1009CE00F4CF00F0F3CF08F00402F3500C26F450ED
:1009DE000822000E00220D500502F3500C26F45092
:1009EE000822000E002202500402F3500826F45092
:1009FE00002202500502016A000E0122F350002669
:100A0E00F45001220D500602F3500826F450002235
:100A1E00026A000E012202220B500602F35000263B
:100A2E00F4500122000E02220E500602F35001264F
:100A3E00F450022202BE2CEF05F0083600360136C5
:100A4E0002360306D8B44EEF05F03FEF05F0D8801E
:100A5E00800E08640030000E002201220222D8A06F
:100A6E003FEF05F0023201320032034A49EF05F042
:100A7E000AAE029E000E51EF05F0010E1AEC00F0C8
:100A8E0051EF05F0020E0EEC00F051EF05F0040EE2
:060A9E0021EC00F0120043
:080AA400067E4FEC01F0120088
:100AAC00E60EF66E110EF76E000EF86E450EE16E48
:100ABC00000EE26E140E006E010E016EFFDD43C0DF
:100ACC0000F044C001F0003600900136450E0024C1
:100ADC00E96E000E0120EA6EEECF00F0EECF01F0D1
:020AEC001200F6
:100AEE0024D0010E856E69D0030E856E66D0030E7E
:100AFE00856E63D0070E856E60D01F0E856E5DD03D
:100B0E001F0E856E5AD03F0E856E57D03F0E856EE6
:100B1E0054D07F0E856E51D07F0E856E4ED0FF0E57
:100B2E00856E4BD0FF0E856E48D0000E241802E164
:100B3E00010E2318D6E0000E241802E1020E23182F
:100B4E00D3E0000E241802E1030E2318D0E0000EAD
:100B5E00241802E1040E2318CDE0000E241802E141
:100B6E00050E2318CAE0000E241802E1060E231803
:100B7E00C7E0000E241802E1070E2318C4E0000E91
:100B8E00241802E1080E2318C1E0000E241802E119
:100B9E00090E2318BEE0000E241802E10A0E2318D7
:100BAE00BBE0000E241802E10B0E2318B8E0000E75
:0C0BBE00241802E10C0E2318B5E0120010
:100BCA00CA0EF66E110EF76E000EF86E250EE16E65
:100BDA00000EE26E1C0E006E010E016E70DD23C067
:100BEA0000F024C001F0003600900136250E0024E2
:100BFA00E96E000E0120EA6EEECF00F0EECF01F0B2
:020C0A001200D6
:100C0C00AC0EF66E110EF76E000EF86E250EE16E40
:100C1C00000EE26E1E0E006E010E016E4FDD23C043
:100C2C0000F024C001F0003600900136250E00249F
:100C3C00E96E000E0120EA6EEECF00F0EECF01F06F
:020C4C00120094
:100C4E00436A7BDE00C016F001C017F009DE5A0EB3
:100C5E00046ED90E056E800E066E690E076E88DE66
:100C6E0000C023F001C024F002C025F003C026F01E
:100C7E0016C000F017C001F0F3DD00C027F001C070
:100C8E0028F002C029F003C02AF023C000F024C0CF
:100C9E0001F025C002F026C003F027C004F028C0E2
:100CAE0005F029C006F02AC007F062DE27C004F066
:100CBE0028C005F029C006F02AC007F059DE00C092
:100CCE0023F001C024F002C025F003C026F0450E2B
:100CDE00006EF50E016E560E026E730E036E27C079
:100CEE0004F028C005F029C006F02AC007F040DE47
:100CFE0027C004F028C005F029C006F02AC007F06E
:100D0E0037DE23C004F024C005F025C006F026C04F
:100D1E0007F04FEC01F000C023F001C024F002C038
:100D2E0025F003C026F07B0E006E140E016E2E0E03
:100D3E00026E7D0E036E27C004F028C005F029C098
:100D4E0006F02AC007F014DE00C004F001C005F062
:100D5E0002C006F003C007F023C000F024C001F06B
:100D6E0025C002F026C003F096DE000E046E000EC3
:100D7E00056E0C0E066E860E076E4FEC01F090DDC2
:0A0D8E0000C015F0000E016E120007
:100D9800E80E046E030E056E1DC000F01EC001F0C3
:100DA800DEDC00C020F0640E046E000E056E1DC06F
:100DB80000F01EC001F0D3DC0A0E046E000E056EB2
:100DC800CEDC08C000F009C001F000C01FF00A0E18
:100DD800046E000E056E1DC000F01EC001F0BFDCE1
:100DE8000A0E046E000E056EBADC08C000F009C0D9
:100DF80001F000C022F00A0E046E000E056E1DC040
:100E080000F01EC001F0ABDC08C000F009C001F022
:100E180000C021F0800E030A006E800E1E18005CD0
:100E280002E11D50E70814E2828E829C828A828841
:100E380020C043F0000E446EF5DC00C083FF0B0EAB
:100E48000C6E620E0D6E0D2EFED70C2EFCD7000018
:100E5800800E006E800E1E18005C02E11D506308B3
:100E680014E2829E828C828A82881FC043F0000E20
:100E7800446ED8DC00C083FF0B0E0C6E620E0D6E44
:100E88000D2EFED70C2EFCD70000800E006E800EB3
:100E98001E18005C02E11D50090814E2828E828C43
:100EA800828A829822C043F0000E446EBBDC00C0E8
:100EB80083FF0B0E0C6E620E0D6E0D2EFED70C2EE0
:100EC800FCD70000800E1E18006E800E005C02E148
:100ED800000E1D5C14E3828E828C829A828821C067
:100EE80043F0000E446E9EDC00C083FF0B0E0C6EB8
:100EF800620E0D6E0D2EFED70C2EFCD700001200D0
:100F0800030E436E1DDD00C016F001C017F0800E01
:100F18000118026E800E025C02E1000E005C11E313
:100F2800800E1718006E800E005C02E1700E165CD1
:100F380008E2010E436E000E446EB4DD00C081FF6E
:100F4800A2D0800E1718006E800E005C02E1710EB0
:100F5800165C0FE3800E1718006E800E005C02E12D
:100F68009F0E165C06E2436A446A9CDD00C081FF5E
:100F78008AD0800E1718006E800E005C02E1A00E69
:100F8800165C12E3800E1718006E800E010A005CD2
:100F980002E1480E165C08E2020E436E000E446E33
:100FA80081DD00C081FF6FD0800E1718006E800EA3
:100FB800010A005C02E1490E165C12E3800E171864
:100FC800006E800E010A005C02E1D50E165C08E294
:100FD800030E436E000E446E65DD00C081FF53D0E2
:100FE800800E1718006E800E010A005C02E1D60E12
:100FF800165C12E3800E1718006E800E020A005C61
:1010080002E19D0E165C08E2040E436E000E446E6B
:1010180049DD00C081FF37D0800E1718006E800EA2
:10102800020A005C02E19E0E165C12E3800E17189D
:10103800006E800E030A005C02E1870E165C08E26F
:10104800050E436E000E446E2DDD00C081FF1BD0DF
:10105800800E1718006E800E030A005C02E1870EEE
:10106800165C11E3800E1718006E800E030A005CF0
:1010780002E1FC0E165C07E2060E436E000E446E9B
:0810880011DD00C081FF120020
:10109000F80ED56EFF0E926EC16A976A966A936AD1
:1010A000956A986A94809482948494869498949A89
:1010B000949C949E186A196A800E006E800E19180E
:1010C000005C02E118500E0837E318C023F019C085
:1010D00024F07BDD00C085FF18C023F019C024F088
:1010E00095DD00C081FF18C023F019C024F08EDD0B
:1010F00000C084FF84CF83FF866A829E82BE02D0B6
:10110000829C01D0828C82BC02D0829A01D0828AD9
:1011100082BA02D0829801D08288020E0B6E380EFD
:101120000C6EAD0E0D6E0D2EFED70C2EFCD70B2EB9
:10113000FAD7184A192AC0D7540E0C6E1C0E0D6E21
:101140000D2EFED70C2EFCD70000D6CF1CF03C0E87
:101150001C02F3CF00F0F4CF01F0E80E046E030E92
:10116000056EB3EC03F000C01AF001C01BF000C024
:1011700023F001C024F0BBDCC7DE69DD00C01DF038
:0C11800001C01EF009DED66AD7D7FFD7E9
:10118C003F0006005B004F0066006D007D0007000D
:10119C007F006F0077007C0039005E0079007100E1
:1011AC007F003F001F001E001C00180010001800DC
:0E11BC001C001E001F003F007F0000007F008F
:1011CA008100C300E700FF00E700C300810081003F
:0C11DA00C300E700FF00E700C300810035
:1011E60054000600DA00CE006600EC00FC00860023
:0411F600FE00EE0009
:020000040030CA
:0D000100220F0E830181FFFFC0FFE0FF40D2
:00000001FF
