:10000000EDEF08F00000000000EF00F0000000003D
:100010000000000000000000F3D7FFFF026A016A41
:10002000006A086A036A000E12000B840BAE20EF10
:1000300000F0010E036E026A016A006A0A3602329B
:10004000FF0E12000AAE029E000E12000B820BAED3
:1000500030EF00F003680268016800680A36023277
:10006000FF0E12000F0E0C6E470E0D6E0D2EFED7FA
:100070000C2EFCD7000000001200210E0D6E0D2E7C
:10008000FED712000CB084EF00F00CA22AEF01F0B2
:100090000E6A000E02649BEF00F0F00E0214D8A46A
:1000A00066EF00F0023A01380F0B02260138F00B20
:1000B000016E00380F0B01260038F00B006E083877
:1000C0000F0B00260838F00B086E0E84D89002BE85
:1000D0007FEF00F008360036013602360E2A02BEE7
:1000E0007FEF00F008360036013602360E2A02BED7
:1000F0007FEF00F008360036013602360E2A0E5029
:10010000036420EF01F0035E0BBC08AE25EF01F0A5
:10011000D880800E08640030000E002201220222E6
:10012000D8A025EF01F0023201320032034A2AEF53
:1001300001F025EF01F001C002F000C001F008C09D
:1001400000F0086A000E0E860264D2EF00F0F00E96
:100150000214D8A4BAEF00F0023A01380F0B0226BD
:100160000138F00B016E00380F0B01260038F00B40
:10017000006E0E84D89002BE7FEF00F0003601368C
:1001800002360E2A02BE7FEF00F00036013602363C
:100190000E2A02BE7FEF00F00036013602360E2A2C
:1001A0007FEF00F001C002F000C001F0006A000E15
:1001B0000E960E880264FFEF00F0F00E0214D8A431
:1001C000EAEF00F0023A01380F0B02260138F00B7B
:1001D000016E0E84D89002BE7FEF00F00136023629
:1001E0000E2A02BE7FEF00F0013602360E2A02BE52
:1001F0007FEF00F0013602360E2A7FEF00F001C0DB
:1002000002F0016A000E0E8602642FEF01F0F00E7C
:100210000214D8A40EEF01F0023A0E84D89002BE68
:100220007FEF00F002360E2A02BE7FEF00F00236AA
:100230000E2A02BE7FEF00F002360E2A7FEF00F09A
:10024000010E0C6EF2DE32EF01F0020E0C6EFADEE1
:1002500032EF01F0040E0C6EF9DE32EF01F0080E01
:100260000C6EDCDE1200000000001200086A096A51
:10027000000E07620364BBEF01F0025006180A6E1D
:10028000075003267E0ED8A04CEF01F0035ED8B0D5
:10029000BFEF01F050EF01F0035ED8A0C3EF01F013
:1002A000028E068E02C00EF001C00BF000C00DF0F1
:1002B00000500402F4CF0CF001500502F4CF00F01E
:1002C000F3CF08F00402F3500C26F4500822000E7D
:1002D00000220D500502F3500C26F4500822000EA7
:1002E000002202500402F3500826F450002202506B
:1002F0000502016A000E0122F3500026F45001228B
:100300000D500602F3500826F4500022026A000E37
:10031000012202220B500602F3500026F450012263
:10032000000E02220E500602F3500126F450022263
:1003300002BEA3EF01F0083600360136023603068E
:10034000D8B4C3EF01F0B6EF01F0D880800E086496
:100350000030000E002201220222D8A0B6EF01F0E8
:10036000023201320032034ABFEF01F00AAE029EB0
:10037000000EC5EF01F0010E51DEC5EF01F0020ED7
:1003800065DEC5EF01F0040E50DE12000A6A03506C
:10039000D8A40A800750D8A40A820A50D8B429EFFA
:1003A00002F0030AD8B4E2EF01F00AB0DDEF01F089
:1003B00006AE27EF02F025EF02F002AE25EF02F0C5
:1003C00027EF02F00250800B0A6E029E0650800B4F
:1003D000069E0A18D8B4F3EF01F00A50D8B425EFFE
:1003E00002F027EF02F00750035CD8B4FDEF01F0F4
:1003F000D8A019EF02F01FEF02F00650025CD8B44B
:1004000007EF02F0D8A019EF02F01FEF02F005503D
:10041000015CD8B411EF02F0D8A019EF02F01FEF81
:1004200002F00450005CD8B429EF02F0D8B01FEFFE
:1004300002F00A52D8B427EF02F025EF02F00A5278
:10044000D8B425EF02F027EF02F0D8801200D89040
:100450001200D880D88412001200C7B409D01F0E31
:10046000C514016E0150000A03E1010E006E120076
:10047000006A1200086A080E0C6E00340836045038
:10048000085ED8B002D00826D89000360C2EF5D7DA
:1004900012000C6A0E6A0250D8A462EF02F001C08A
:1004A00002F000C001F0006A0E860250D8A462EF8C
:1004B00002F001C002F0016A0E960E880250D8B414
:1004C00074EF02F00E50035ED8A4D8A079EF02F0CA
:1004D000D89002BE7EEF02F0003601360236032EBF
:1004E00069EF02F079EF02F0010E0C6E97DD81EFFB
:1004F00002F0020E0C6E99DD81EF02F0040E0C6E1C
:10050000A1DD120066C004F067C005F004C002F06F
:1005100005C003F0044A052A68C000F069C001F074
:100520000001684B692B00C0E9FF01C0EAFF02C06F
:10053000E1FF03C0E2FFEECFE6FF02C0E9FF03C028
:10054000EAFFEE5201E0E2D766C000F067C001F0BA
:100550001200025006180E6E086A096A0B6A0350F0
:1005600007649CEF03F006500A6E068E028E03505D
:100570000B6E0750036E000E0B64ECEF02F00B5095
:10058000075ED8B48DEF03F0070E07645BEF03F04E
:10059000075E00C008F001C000F002C001F0026A6E
:1005A000074E8DEF03F0076430EF03F0075E00C0E5
:1005B00008F001C000F0016A074E8DEF03F00764F8
:1005C0000EEF03F0075E00C008F0006A074E8DEFE3
:1005D00003F00764F5EF02F00AC002F005C001F075
:1005E00004C000F0086AB9EF04F0030E076400EFDE
:1005F00003F0075E08380F0B086E074E8DEF03F00F
:10060000D8900832074E8DEF03F0D8900832074E8D
:100610008DEF03F0D89008328DEF03F0030E0764DE
:100620001FEF03F0075E08380F0B086E0038F00B61
:10063000082600380F0B006E074E8DEF03F0D890A0
:1006400000320832074E8DEF03F0D89000320832A6
:10065000074E8DEF03F0D890003208328DEF03F093
:10066000030E076447EF03F0075E08380F0B086EB0
:100670000038F00B082600380F0B006E0138F00B25
:10068000002601380F0B016E074E8DEF03F0D89056
:10069000013200320832074E8DEF03F0D89001325C
:1006A00000320832074E8DEF03F0D890013200324D
:1006B00008328DEF03F0030E076478EF03F0075E56
:1006C00008380F0B086E0038F00B082600380F0BA7
:1006D000006E0138F00B002601380F0B016E023856
:1006E000F00B012602380F0B026E074E8DEF03F060
:1006F000D8900232013200320832074E8DEF03F0FB
:10070000D8900232013200320832074E8DEF03F0EA
:10071000D8900232013200320832096A000E0EAE61
:1007200081EF04F0081E001E011E021E082A00228E
:100730000122022281EF04F00750D8A4A2EF03F0B7
:10074000B9EF04F0096A02C00AF0028E068E075063
:10075000035C076ED8B474EF04F0070E076442EF31
:1007600004F0075E0450096E0550046E0650056ED5
:10077000066A074E74EF04F0070E076417EF04F0E3
:10078000075E0450096E0550046E056A074E74EF4B
:1007900004F0070E0764F5EF03F0075E0450096EDE
:1007A000046A074E74EF04F0070E0764DCEF03F0F1
:1007B0000AC002F0B9EF04F0030E0764E7EF03F09C
:1007C000075E09380F0B096E074E74EF04F0D890DE
:1007D0000932074E74EF04F0D8900932074E74EFD7
:1007E00004F0D890093274EF04F0030E076406EFAA
:1007F00004F0075E09380F0B096E0438F00B092668
:1008000004380F0B046E074E74EF04F0D8900432D6
:100810000932074E74EF04F0D89004320932074EC3
:1008200074EF04F0D8900432093274EF04F0030E30
:1008300007642EEF04F0075E09380F0B096E0438C9
:10084000F00B092604380F0B046E0538F00B042654
:1008500005380F0B056E074E74EF04F0D890053283
:1008600004320932074E74EF04F0D8900532043296
:100870000932074E74EF04F0D89005320432093281
:1008800074EF04F0030E07645FEF04F0075E0938AD
:100890000F0B096E0438F00B092604380F0B046E99
:1008A0000538F00B042605380F0B056E0638F00BE3
:1008B000052606380F0B066E074E74EF04F0D8902D
:1008C0000632053204320932074E74EF04F0D89034
:1008D0000632053204320932074E74EF04F0D89024
:1008E0000632053204320932086A000E0EAE81EF7C
:1008F00004F0091E041E051E061E092A04220522F4
:1009000006220950082604500022055001220650F4
:1009100002220EBE98EF04F0D8A0A7EF04F0023236
:10092000013200320832033EA7EF04F0B3EF04F0C7
:10093000D8B0ADEF04F0000E081E001E011E021E0E
:10094000082A0022012202220A7EADEF04F0010EE5
:100950000C6E42EC00F0BBEF04F0020E0C6E42ECA9
:1009600000F0BBEF04F0040E0C6E26EC00F0BBEFC1
:1009700004F0000E0C6E1200000166BF02D0819ED2
:1009800001D0818E66BD02D0819C01D0818C66BB76
:1009900002D0819A01D0818A66B902D0819801D0B3
:1009A00081882CB002D0818401D0819481865BDC67
:1009B000819666B702D0819E01D0818E66B502D045
:1009C000819C01D0818C66B302D0819A01D0818A4A
:1009D00066B102D0819801D081882CB002D0818488
:1009E00001D0819481863FDC81962CA003D032EC2B
:1009F00000F002D03DEC00F012000001646B656B6A
:100A000058C060F059C061F05AC062F05BC063F03A
:100A10006351FF0A08E16251FF0A05E16151FF0AD3
:100A200002E16051FF0A0CE15CC066F05DC067F056
:100A30001E0E686F000E696F65DD030E006E1200FA
:100A4000010E5E6E62AF0ED0800E6219006E00C0A5
:100A500062F05E2A5CC0E1FF5DC0E2FF2D0EE66E33
:100A60005C4A5D2A000E006E631908E100506219AD
:100A700005E10050611902E16051000A0BE15CC020
:100A800066F05DC067F0220E686F000E696F3ADD98
:100A9000006A12006351FF0A08E16251000A05E191
:100AA0006151000A02E16051000A0CE15CC066F08D
:100AB0005DC067F0240E686F000E696F23DD5EC0B5
:100AC00000F01200000E046E000E056E000E066EA1
:100AD0007F0E076E60C000F061C001F062C002F0DE
:100AE00063C003F053DC010ED8B0000E006E00525C
:100AF0001CE060C000F061C001F062C002F063C0A1
:100B000003F0000E046E000E056E200E066E820EBF
:100B1000076E36EC01F000C060F001C061F002C069
:100B200062F003C063F06507CDD7000E046E000EBF
:100B3000056E200E066E820E076E60C000F061C06A
:100B400001F062C002F063C003F020DC000ED8B0F8
:100B5000010E006E00521CE060C000F061C001F0A8
:100B600062C002F063C003F0CD0E046ECC0E056EC1
:100B70004C0E066E7B0E076E36EC01F000C060F086
:100B800001C061F002C062F003C063F0652BCDD7F5
:100B9000FF0E6015086EFF0E6115096E7F0E62155F
:100BA0000A6E000E63150B6E08C004F009C005F054
:100BB0000AC006F00BC007F004360490053606366E
:100BC0000736000E6015006E000E6115016E000EF6
:100BD0006215026EFF0E6315036E00C060F001C067
:100BE00061F002C062F003C063F004506011006E57
:100BF00005506111016E06506211026E07506311BB
:100C0000036E00C060F001C061F002C062F003C07A
:100C100063F07F0E635D006E00C05FF0010E636FD6
:100C200000C004F060C000F061C001F062C002F0DA
:100C300063C003F0045007E000360090013602362E
:100C40000336FF0FF8D700C060F001C061F002C0AA
:100C500062F003C063F05CC0E1FF5DC0E2FF63517E
:100C6000300FE66E5C4A5D2A800E6519006E800EBC
:100C7000010A005C08E3800E060A006E800E65190A
:100C8000005C01E30AD05CC0E1FF5DC0E2FF2E0E14
:100C9000E66E5C4A5D2A010E646F060E5F6E5F5061
:100CA000000A54E0636B60C000F061C001F062C0F4
:100CB00002F063C003F000360090013602360336BE
:100CC000003600900136023603366051002661512D
:100CD0000122625102226351032200C060F001C070
:100CE00061F002C062F003C063F060C000F061C058
:100CF00001F062C002F063C003F0003600900136DC
:100D00000236033600C060F001C061F002C062F03C
:100D100003C063F05CC0E1FF5DC0E2FF6351300FD0
:100D2000E66E5C4A5D2A6451000A0EE16507655172
:100D3000000A0AE15CC0E1FF5DC0E2FF2E0EE66E34
:100D40005C4A5D2A010E646F5F06A9D7FF0E5C2422
:100D5000E96EFF0E5D20EA6EEE50300A05E1010EED
:100D60005C5E000E5D5AF2D7FF0E5C24E96EFF0E4A
:100D70005D20EA6EEE502E0A04E1010E5C5E000E6C
:100D80005D5A6551000A3FE05CC0E1FF5DC0E2FFD3
:100D9000650EE66E5C4A5D2A800E6519006E800E57
:100DA000000A005C0BE25CC0E1FF5DC0E2FF2D0EBB
:100DB000E66E5C4A5D2A65510008656F65C05FF0AC
:100DC000655109080FE20A0E046E5FC000F03AECAC
:100DD00002F05CC0E1FF5DC0E2FF0050300FE66E44
:100DE0005C4A5D2A0A0E046E5FC000F03AEC02F025
:100DF00008C000F05CC0E1FF5DC0E2FF0050300FB2
:100E0000E66E5C4A5D2A5CC0E1FF5DC0E2FFE66A17
:100E1000006A1200086A096A100E0C6E0134083666
:100E200009360450085E0550D8A0053C095ED8B0CC
:100E300007D0045008260550D8B0053C0926D890A4
:100E4000003601360C2EEAD712002C9058C066F0FE
:100E500093DD2C801200586A596A5950120802E139
:100E600058508E0808E32DEC02F0005201E003D048
:100E7000584A592AF2D7120E595C02E18F0E585C7B
:100E800003E37B0E006E1200C580C5A001D0FDD724
:100E9000006A12000050086E0150006E016A026A7A
:100EA000036A0B6A0C6A960E036E0A6A00C001F0B0
:100EB00008C000F0086A026A49EC02F01200C5841A
:100EC0001200067EA9EC02F012009E96C5869EB620
:100ED00001D0FDD7C9CF01F05850000A02E1C58A00
:100EE00001D0C59A9E96C5889EB601D0FDD701C097
:100EF00000F01200C582C5A201D0FDD712009E9657
:100F000058C0C9FFC7A401D0FDD79EB601D0FDD7F8
:100F1000C5BC02D0006A1200C584020E006E120029
:100F20000FD0800E516E19D0C00E516E16D0940E97
:100F3000516E13D0D40E516E10D0800E516E0DD064
:100F40005150010AEEE05150020AEEE05150030AFE
:100F5000EEE05150040AEEE0F0D75204006E51501A
:100F6000002600C051F000C066F006DD2C90556AE6
:100F700055505324E96E000E5420EA6EEE520BE0F9
:100F800055505324E96E000E5420EA6EEECF58F00F
:100F90005CDF552AEDD72C8012009396939493989A
:100FA000939A939C939E81968194819E819C819A31
:100FB000819832EC00F032EC00F032EC00F0818AE3
:100FC0008188818633EC01F0819632EC00F08186D5
:100FD00033EC01F0819632EC00F0818633EC01F0C5
:100FE000819632EC00F08198818633EC01F0819695
:100FF00032EC00F0818633EC01F08196819A818E8B
:10100000818633EC01F0819632EC00F0819E81887C
:10101000818633EC01F081968198818633EC01F072
:10102000819632EC00F0818633EC01F08196818864
:10103000818633EC01F0819632EC00F08198818654
:1010400033EC01F08196818E818C818A8188818642
:1010500033EC01F0819632EC00F02C801200090094
:10106000F5CFE6FF0006FBE10106F9E112009390DF
:1010700093928A908A9293809382C79EC79C380EDF
:10108000C66E12004AC000F04BC001F003DF0A0E2A
:10109000046ED70E056E230E066E790E076E36ECC3
:1010A00001F0330E046E930E056E080E066E870E69
:1010B000076E07DF330E046E330E056E730E066E79
:1010C0007E0E076E36EC01F000C04CF001C04DF012
:1010D00002C04EF003C04FF000C058F001C059F0FC
:1010E00002C05AF003C05BF0410E5C6E000E5D6EF4
:1010F00084DC466A1200556A050E555C0AE25550BA
:101100005324E16E000E5420E26E200EE66E552A46
:10111000F3D755505324E16E000E5420E26EE66A78
:10112000550655505324566E000E5420576E0A0E25
:10113000046E000E056E51C000F052C001F06ADE70
:1011400008C000F009C001F0300E002656C0E1FFD3
:1011500057C0E2FF00C0E6FF0A0E046E000E056EE7
:1011600051C000F052C001F055DE00C051F001C086
:1011700052F0000E011802E1000E001801E102D049
:101180005506CFD712009BDE66DE586AB8DE1CC05B
:1011900058F0B5DEAFDE586AB2DE2DEC02F0005238
:1011A00011E0586A92DE00C03FF0000E406E586AAF
:1011B0008CDE00C02DF0000E2E6E010E586E85DE06
:1011C00000C02BF07CDE2DC001F0006A00503F24EF
:1011D0004A6E015040204B6E12006CEC09F0926A8E
:1011E000946A966A700ED36ED8DE010E0001666FA7
:1011F000BCEC04F00C0E666FBCEC04F0010E516EFA
:10120000010E526E150E536E000E546E89DE060EE0
:101210000B6E130E0C6EAD0E0D6E0D2EFED70C2E3A
:10122000FCD70B2EFAD700000000280EC86E1FDF77
:10123000030E0B6E080E0C6E770E0D6E0D2EFED784
:101240000C2EFCD70B2EFAD7C78C506A502A505060
:101250003208D8A0506A50C051F0000E526E2F0EC6
:10126000536E000E546E47DF010E516E070E526E24
:10127000320E536E000E546E53DE020E516E070E88
:10128000526E280E536E000E546E4ADE7CDFFADE7C
:10129000020E516E010E526E410E536E000E546ED0
:1012A0003FDE030E0B6E8A0E0C6E550E0D6E0D2E6C
:1012B000FED70C2EFCD70B2EFAD700000000C6D7A5
:1012C000FFD7436F756E743A0007004E614E0030D1
:1012D00000494E4600DF430010EE15F0160E006E7A
:1012E000010E016EC20EF66E120EF76E000EF86E53
:1012F0002FEC08F01200FFFFFFFFFFFFFFFFFFFFD3
:020000040030CA
:0E000000000E1F1EFF8381FF0FC00FE00F4098
:00000001FF
