:1000000098EF01F00000000000EF00F00000000099
:0A0010000000000000000000F3D71C
:10001C000900F5CFE6FF0006FBE10106F9E112004D
:10002C000134083609360450085E0550D8A0053C4A
:10003C00095E003601360F0E0C6E01340836093697
:10004C00045000A006D0085E0550D8A0053C095EFF
:10005C0005D008260550D8B0053C092600360136D7
:10006C000C2EEBD700B006D0045008260550D8B0A3
:08007C00053C092600001200FA
:100084000450000A08E10550000A05E1FF0E006E65
:100094007F0E016E12000D6A096A086A0150001091
:1000A400D8B4000C015005180A6E0ABE0D1E0B6A66
:1000B40005AE05D0041E051E042AD8B4052A01AED7
:1000C40005D0001E011E002AD8B4012A01500510D3
:1000D4000A6E0ABE10D0A8DF0BB020D00DAE000C03
:1000E400001E011E002AD8B4012A081E091E082A6F
:1000F400D8B4092A000C05AE0DD001BE07D00150BA
:10010400096E0050086E016A006AE8D7016A006A45
:10011400002A000C011E001E0B2ADDD7082AD8B4C1
:10012400092A0450085CD8A4D9D70550095CD8A47E
:10013400D5D7096A086A002AD8B4012A01AECED7F5
:060144000000FF0C120098
:10014A00C20EF66E040EF76E000EF86E400EE16EE9
:10015A00000EE26E200E006E010E016E5ADF3EC0E6
:10016A0000F03FC001F0003600900136400E002436
:10017A00E96E000E0120EA6EEECF00F0EECF01F03C
:02018A00120061
:0A018C001D0E0D6E0D2EFED71200A1
:10019600E20EF66E040EF76E000EF86E2A0EE16E93
:1001A600000EE26E140E006E010E016E34DF28C0E2
:1001B60000F029C001F00036009001362A0E002416
:1001C600E96E000E0120EA6EEECF00F0EECF01F0F0
:0201D600120015
:1001D800086A080E0C6E003408360450085ED8B061
:0E01E80002D00826D89000360C2EF5D7120053
:1001F600C26A070EC012C08E28C000F000360090FA
:10020600003600900050C212C280BDDFC282C2A278
:1002160001D0FDD7C4CF01F0006AC3500012000E12
:060226000112C29012005B
:10022C00E80E046E030E056E23C000F024C001F02E
:10023C0023DF00C025F0640E046E000E056E23C093
:10024C0000F024C001F018DF0A0E046E000E056EDB
:10025C0013DF08C000F009C001F000C026F00A0E40
:10026C00046E000E056E23C000F024C001F004DF04
:10027C000A0E046E000E056EFFDE08C000F009C009
:10028C0001F000C027F00A0E046E000E056E23C0AC
:10029C0000F024C001F0F0DE08C000F009C001F04D
:1002AC0000C017F08296829425C03EF0000E3F6E7F
:1002BC0046DF00C083FF060E0C6E300E0D6E0D2E49
:1002CC00FED70C2EFCD700008296828426C03EF00E
:1002DC00000E3F6E34DF00C083FF060E0C6E300E36
:1002EC000D6E0D2EFED70C2EFCD70000828682944C
:1002FC0027C03EF0000E3F6E22DF00C083FF060ECB
:10030C000C6E300E0D6E0D2EFED70C2EFCD7000091
:10031C008286828417C03EF0000E3F6E10DF00C054
:04032C0083FF120039
:10033000F80ED56EFF0E926EC16A976A966A936A3E
:10034000956A94909492949494969498949AAA0E00
:10035000856E0A0E046E18C000F03EDF08C000F083
:1003600000C028F0000E296E16DF00C081FF22C0F9
:1003700019F01AD01AC023F0000E246E57DF20D0D7
:100380000A0E1A02F3CF23F0F4CF24F04FDF18D077
:100390001AC023F0000E246E49DF12D01AC023F0D9
:1003A000000E246E43DF0CD01950010AE3E019500F
:1003B000020AE6E01950030AEBE01950040AEEE0E5
:1003C000286A19DF00C015F001C016F0800E011870
:1003D000026E800E025C02E1000E005C0EE3800EF5
:1003E0001618006E800E005C02E1CC0E155C05E272
:1003F000010E226E010E196E62D0800E1618006E6C
:10040000800E005C02E1CC0E155C0FE3800E161826
:10041000006E800E010A005C02E1990E155C05E297
:10042000020E226E020E196E4AD0800E1618006E51
:10043000800E010A005C02E1990E155C0FE3800E4C
:100440001618006E800E020A005C02E1640E155C54
:1004500005E2030E226E030E196E31D0800E1618BF
:10046000006E800E020A005C02E1640E155C0FE370
:10047000800E1618006E800E030A005C02E1300E3A
:10048000155C05E2040E226E040E196E18D0800E63
:100490001618006E800E030A005C02E1300E155C37
:1004A0000EE3800E1618006E800E040A005C02E156
:1004B000000E155C04E2050E226E050E196E47D77C
:0204C000FFD764
:1004C2003F0006005B004F0066006D007D000700E4
:1004D2007F006F0077007C0039005E0079007100B8
:1004E200FE000600DA00CE006600EC00FC0086008A
:0404F200FE00EE001A
:020000040030CA
:0D000100220F0E830181FFFFC0FFE0FF40D2
:00000001FF
