:100000002EEF0AF00000000000EF00F000000000FA
:0A0010000000000000000000F3D71C
:08001C000AAE029E000E120064
:100024000B820BAE1CEF00F00368026801680068E5
:080034000A360232FF0E120031
:0E003C00026A016A006A086A036A000E120076
:10004A000B840BAE30EF00F0010E036E026A016AF8
:0A005A00006A0A360232FF0E12009F
:080064000B6A0B86FF0E12006F
:10006C000CB078EF00F00CA21EEF01F00E6A000E3F
:10007C0002648FEF00F0F00E0214D8A45AEF00F0D7
:10008C00023A01380F0B02260138F00B016E0038D2
:10009C000F0B01260038F00B006E08380F0B0026F2
:1000AC000838F00B086E0E84D89002BE73EF00F087
:1000BC0008360036013602360E2A02BE73EF00F007
:1000CC0008360036013602360E2A02BE73EF00F0F7
:1000DC0008360036013602360E2A0E50036414EF31
:1000EC0001F0035E0BBC08AE19EF01F0D880800E56
:1000FC0008640030000E002201220222D8A019EF61
:10010C0001F0023201320032034A1EEF01F019EF06
:10011C0001F001C002F000C001F008C000F0086A54
:10012C00000E0E860264C6EF00F0F00E0214D8A486
:10013C00AEEF00F0023A01380F0B02260138F00B3B
:10014C00016E00380F0B01260038F00B006E0E8488
:10015C00D89002BE73EF00F00036013602360E2A3C
:10016C0002BE73EF00F00036013602360E2A02BED4
:10017C0073EF00F00036013602360E2A73EF00F0F2
:10018C0001C002F000C001F0006A000E0E960E884D
:10019C000264F3EF00F0F00E0214D8A4DEEF00F0CE
:1001AC00023A01380F0B02260138F00B016E0E8457
:1001BC00D89002BE73EF00F0013602360E2A02BE52
:1001CC0073EF00F0013602360E2A02BE73EF00F018
:1001DC00013602360E2A73EF00F001C002F0016AFC
:1001EC00000E0E86026423EF01F0F00E0214D8A468
:1001FC0002EF01F0023A0E84D89002BE73EF00F0C9
:10020C0002360E2A02BE73EF00F002360E2A02BE30
:10021C0073EF00F002360E2A73EF00F0010E0C6E35
:10022C000EDF26EF01F0020E0C6EF2DE26EF01F06F
:10023C00040E0C6EF1DE26EF01F0080E0C6EF8DEEB
:02024C0012009E
:10024E000C6A0E6A0250D8A440EF01F001C002F011
:10025E0000C001F0006A0E860250D8A440EF01F0F3
:10026E0001C002F0016A0E960E880250D8B452EF09
:10027E0001F00E50035ED8A4D8A057EF01F0D8902D
:10028E0002BE5CEF01F0003601360236032E47EF58
:10029E0001F057EF01F0010E0C6EC9DE5FEF01F0B9
:1002AE00020E0C6ECBDE5FEF01F0040E0C6EAFDEB5
:0202BE0012002C
:0A02C0001D0E0D6E0D2EFED712006C
:1002CA000900F5CFE6FF0006FBE10106F9E112009D
:1002DA000B800BAE79EF01F0026A0AAEFF0E026ED6
:0C02EA00016E006E0A360232FF0E120098
:1002F6000134083609360450085E0550D8A0053C7E
:10030600095E003601360F0E0C6E013408360936CA
:10031600045000A006D0085E0550D8A0053C095E32
:1003260005D008260550D8B0053C0926003601360A
:100336000C2EEBD700B006D0045008260550D8B0D6
:08034600053C0926000012002D
:10034E00086A096A000E076203642CEF02F002507D
:10035E0006180A6E075003267E0ED8A0BDEF01F0D8
:10036E00035ED8B030EF02F0C1EF01F0035ED8A00B
:10037E0034EF02F0028E068E02C00EF001C00BF0BA
:10038E0000C00DF000500402F4CF0CF00150050235
:10039E00F4CF00F0F3CF08F00402F3500C26F45023
:1003AE000822000E00220D500502F3500C26F450C8
:1003BE000822000E002202500402F3500826F450C8
:1003CE00002202500502016A000E0122F35000269F
:1003DE00F45001220D500602F3500826F45000226C
:1003EE00026A000E012202220B500602F350002672
:1003FE00F4500122000E02220E500602F350012686
:10040E00F450022202BE14EF02F008360036013616
:10041E0002360306D8B434EF02F027EF02F0D8808C
:10042E00800E08640030000E002201220222D8A0A5
:10043E0027EF02F0023201320032034A30EF02F0AF
:10044E000AAE029E000E36EF02F0010EF0DD36EF20
:10045E0002F0020EE0DD36EF02F0040EEFDD1200C8
:10046E000B6A0350D8B47DEF02F002500A6E028E72
:10047E008E0E035E03AE81EF02F0036C080E035C7A
:10048E00D8A05CEF02F0036E013602C001F0026AE2
:10049E00080E035CD8A05CEF02F0036E0136016A11
:1004AE000350D8A4D89066EF02F00350D8B466EF8C
:1004BE0002F0D89002320132032E60EF02F00BBC34
:1004CE0001A073EF02F0D8A073EF02F0012AD8B4A6
:1004DE00022A02BE90EF02F00AAE95EF02F0021E63
:1004EE00011E012AD8B4022A95EF02F0026A016AAF
:1004FE0095EF02F00B800BAE99EF02F0026A0AAE96
:10050E0099EF02F0FF0E026E016E0A36023299EF7B
:10051E0002F0010E0C6EDADE9BEF02F0000E0C6E96
:10052E009BEF02F0FF0E0C6E0150006E0250016E3A
:02053E001200A9
:100540000450000A12E10550000A0FE10650000AAB
:100550000CE10750000A09E1FF0E006EFF0E016E6C
:100560007F0E026EFF0E036E1200086A096A0750C2
:10057000D8B44BEF03F00350D8B44FEF03F0025060
:1005800006180A6E028E068E0E6A02C008F001C0BE
:100590000CF000C00DF004500D5E0550D8A0053CD5
:1005A0000C5E0650D8A0063C085E086A0C6A0D6A0C
:1005B000D8A0E2EF02F0D8900232013200320832C5
:1005C000010E0E6E0750035ED8A0EFEF02F07E0E14
:1005D0000E240326D8B053EF03F0F5EF02F07E0EA1
:1005E0000E240326D8A057EF03F0180E0B6E0D361D
:1005F0000C3608360036013602360E360450005EE0
:100600000550D8A0053C015E0650D8A0063C025E0D
:1006100006340E120EA010EF03F00D801BEF03F056
:10062000045000260550D8B0053C01260650D8B02D
:10063000062802260D900B2EF7EF02F041EF03F093
:10064000D8900036013602360E360450005E055052
:10065000D8A0053C015E0650D8A0063C025E0634D8
:100660000E10010B0D26D8B00C2AD8B4082AD8A435
:1006700041EF03F008320C320D32032AD8B453EFA5
:1006800003F00AAE089E0850026E0C50016E0D5029
:10069000006E59EF03F0010EE5DC59EF03F0020E96
:1006A000CDDC59EF03F0040EBDDC59EF03F0080E6A
:0406B000CCDC12008C
:1006B400025006180E6E086A096A0B6A0350076432
:1006C4004DEF04F006500A6E068E028E03500B6E38
:1006D4000750036E000E0B649DEF03F00B50075E92
:1006E400D8B43EEF04F0070E07640CEF04F0075E85
:1006F40000C008F001C000F002C001F0026A074E19
:100704003EEF04F00764E1EF03F0075E00C008F079
:1007140001C000F0016A074E3EEF04F00764BFEF2A
:1007240003F0075E00C008F0006A074E3EEF04F0D5
:100734000764A6EF03F00AC002F005C001F004C08C
:1007440000F0086A6AEF05F0030E0764B1EF03F0E6
:10075400075E08380F0B086E074E3EEF04F0D89082
:100764000832074E3EEF04F0D8900832074E3EEFB1
:1007740004F0D89008323EEF04F0030E0764D0EF83
:1007840003F0075E08380F0B086E0038F00B0826DC
:1007940000380F0B006E074E3EEF04F0D890003285
:1007A4000832074E3EEF04F0D89000320832074E6C
:1007B4003EEF04F0D890003208323EEF04F0030E0E
:1007C4000764F8EF03F0075E08380F0B086E003873
:1007D400F00B082600380F0B006E0138F00B0026D2
:1007E40001380F0B016E074E3EEF04F0D890013232
:1007F40000320832074E3EEF04F0D8900132003246
:100804000832074E3EEF04F0D8900132003208322D
:100814003EEF04F0030E076429EF04F0075E083886
:100824000F0B086E0038F00B082600380F0B006E13
:100834000138F00B002601380F0B016E0238F00B63
:10084400012602380F0B026E074E3EEF04F0D890DB
:100854000232013200320832074E3EEF04F0D890E3
:100864000232013200320832074E3EEF04F0D890D3
:100874000232013200320832096A000E0EAE32EF43
:1008840005F0081E001E011E021E082A0022012275
:10089400022232EF05F00750D8A453EF04F06AEFB8
:1008A40005F0096A02C00AF0028E068E0750035C46
:1008B400076ED8B425EF05F0070E0764F3EF04F0D4
:1008C400075E0450096E0550046E0650056E066AF4
:1008D400074E25EF05F0070E0764C8EF04F0075E26
:1008E4000450096E0550046E056A074E25EF05F0A5
:1008F400070E0764A6EF04F0075E0450096E046A4D
:10090400074E25EF05F0070E07648DEF04F00AC0CB
:1009140002F06AEF05F0030E076498EF04F0075E37
:1009240009380F0B096E074E25EF05F0D8900932F0
:10093400074E25EF05F0D8900932074E25EF05F054
:10094400D890093225EF05F0030E0764B7EF04F0E1
:10095400075E09380F0B096E0438F00B09260438BA
:100964000F0B046E074E25EF05F0D89004320932C0
:10097400074E25EF05F0D89004320932074E25EFD3
:1009840005F0D8900432093225EF05F0030E076410
:10099400DFEF04F0075E09380F0B096E0438F00B23
:1009A400092604380F0B046E0538F00B04260538AD
:1009B4000F0B056E074E25EF05F0D8900532043273
:1009C4000932074E25EF05F0D8900532043209327A
:1009D400074E25EF05F0D89005320432093225EF91
:1009E40005F0030E076410EF05F0075E09380F0BDE
:1009F400096E0438F00B092604380F0B046E053811
:100A0400F00B042605380F0B056E0638F00B05268F
:100A140006380F0B066E074E25EF05F0D890063208
:100A2400053204320932074E25EF05F0D89006321C
:100A3400053204320932074E25EF05F0D89006320C
:100A4400053204320932086A000E0EAE32EF05F0A8
:100A5400091E041E051E061E092A0422052206225A
:100A64000950082604500022055001220650022293
:100A74000EBE49EF05F0D8A058EF05F0023201325E
:100A840000320832033E58EF05F064EF05F0D8B0A9
:100A94005EEF05F0000E081E001E011E021E082A4D
:100AA4000022012202220A7E5EEF05F0010E0C6E86
:100AB40036EC00F06CEF05F0020E0C6E36EC00F034
:100AC4006CEF05F0040E0C6E12EC00F06CEF05F008
:060AD400000E0C6E120082
:100ADA00BA0EF66E150EF76E000EF86E4C0EE16E3B
:100AEA00000EE26E200E006E010E016E65EC01F042
:100AFA004AC000F04BC001F00036009001364C0E9F
:100B0A000024E96E000E0120EA6EEECF00F0EECF6F
:040B1A0001F01200D4
:100B1E0000C008F00150006E016A026A036A0B6A97
:100B2E000C6A016A026A036A960E036E0A6A00AEC6
:100B3E00A7EF05F0081E001E082AD8B4002A0A8E58
:100B4E0000C001F008C000F0086A026A27EC01F04C
:020B5E00120083
:100B6000140EF66E160EF76E000EF86E4C0EE16E59
:100B7000000EE26E140E006E010E016E65EC01F0C7
:100B80004AC000F04BC001F00036009001364C0E18
:100B90000024E96E000E0120EA6EEECF00F0EECFE9
:040BA00001F012004E
:100BA400C26A070EC012C08E4AC000F00036009020
:100BB400003600900050C212C28060EC01F0C28284
:100BC400C2A201D0FDD7C4CF01F0006AC350001205
:080BD400000E0112C290120094
:100BDC000450000A08E10550000A05E1FF0E006E02
:100BEC007F0E016E12000D6A096A086A015000102E
:100BFC00D8B4000C015005180A6E0ABE0D1E0B6A03
:100C0C0005AE05D0041E051E042AD8B4052A01AE73
:100C1C0005D0001E011E002AD8B4012A015005106F
:100C2C000A6E0ABE10D07BEC01F00BB020D00DAEDA
:100C3C00000C001E011E002AD8B4012A081E091E31
:100C4C00082AD8B4092A000C05AE0DD001BE07D075
:100C5C000150096E0050086E016A006AE8D7016AFB
:100C6C00006A002A000C011E001E0B2ADDD7082A80
:100C7C00D8B4092A0450085CD8A4D9D70550095C0B
:100C8C00D8A4D5D7096A086A002AD8B4012A01AEBB
:080C9C00CED70000FF0C12008E
:100CA400828E829C828A8288790E836E150E0C6EE7
:100CB400C60E0D6E0D2EFED70C2EFCD70000828EB4
:100CC400828C828A82983F0E836E150E0C6EC60E3D
:100CD4000D6E0D2EFED70C2EFCD70000828E828C5A
:100CE400829A8288710E836E150E0C6EC60E0D6E7E
:0C0CF4000D2EFED70C2EFCD700001200C5
:100D0000F80EF66E150EF76E000EF86E2C0EE16EF4
:100D1000000EE26E1C0E006E010E016E65EC01F01D
:100D20002AC000F02BC001F00036009001362C0ED6
:100D30000024E96E000E0120EA6EEECF00F0EECF47
:040D400001F01200AC
:100D4400DA0EF66E150EF76E000EF86E2C0EE16ECE
:100D5400000EE26E1E0E006E010E016E65EC01F0D7
:100D64002AC000F02BC001F00036009001362C0E92
:100D74000024E96E000E0120EA6EEECF00F0EECF03
:040D840001F0120068
:100D8800030E4A6E0BDF00C01EF001C01FF0800E7C
:100D98000118026E800E025C02E1000E005C15E391
:100DA800800E1F18006E800E005C02E1580E1E5C5B
:100DB8000CE2010E4A6E000E4B6ECEDE00C081FFC3
:100DC800010E006E000E016E1200800E1F18006EDC
:100DD800800E005C02E1590E1E5C16E3800E1F189F
:100DE800006E800E010A005C02E11C0E1E5C0CE223
:100DF800020E4A6E000E4B6EAFDE00C081FF020E7F
:100E0800006E000E016E1200800E1F18006E800E1C
:100E1800010A005C02E11D0E1E5C16E3800E1F181D
:100E2800006E800E010A005C02E1F30E1E5C0CE20B
:100E3800030E4A6E000E4B6E8FDE00C081FF030E5C
:100E4800006E000E016E1200800E1F18006E800EDC
:100E5800010A005C02E1F40E1E5C16E3800E1F1806
:100E6800006E800E020A005C02E1BC0E1E5C0CE201
:100E7800040E4A6E000E4B6E6FDE00C081FF040E3A
:100E8800006E000E016E1200800E1F18006E800E9C
:100E9800020A005C02E1BC0E1E5C16E3800E1F18FD
:100EA800006E800E030A005C02E1810E1E5C0CE2FB
:100EB800050E4A6E000E4B6E4FDE00C081FF050E18
:100EC800006E000E016E1200800E1F18006E800E5C
:100ED800030A005C02E1820E1E5C16E3800E1F18F6
:100EE800006E800E030A005C02E1FC0E1E5C0CE240
:100EF800060E4A6E000E4B6E2FDE00C081FF060EF6
:0A0F0800006E000E016E12001200D0
:100F1200E80E046E030E056E21C000F022C001F03F
:100F22005CDE00C01BF0640E046E000E056E21C074
:100F320000F022C001F051DE0A0E046E000E056EB2
:100F42004CDE08C000F009C001F000C01AF00A0E21
:100F5200046E000E056E21C000F022C001F03DDEDD
:100F62000A0E046E000E056E38DE08C000F009C0DD
:100F720001F000C028F00A0E046E000E056E21C0BA
:100F820000F022C001F029DE08C000F009C001F023
:100F920000C029F0800E030A006E800E2218005C49
:100FA20002E12150E70814E28686869486828680D2
:100FB2001BC04AF0000E4B6E8FDD00C084FF060E90
:100FC2000C6E300E0D6E0D2EFED70C2EFCD70000CF
:100FD200800E006E800E2218005C02E12150630830
:100FE20014E286868684868286901AC04AF0000EB3
:100FF2004B6E72DD00C084FF060E0C6E300E0D6E5D
:101002000D2EFED70C2EFCD70000800E006E800E37
:101012002218005C02E12150090814E286868684C7
:101022008692868028C04AF0000E4B6E55DD00C0C5
:1010320084FF060E0C6E300E0D6E0D2EFED70C2E9A
:10104200FCD70000800E2218006E800E005C02E1C8
:10105200000E215C0BE3869686848682868029C0F8
:0E1062004AF0000E4B6E38DD00C084FF120015
:10107000E80E046E030E056E21C000F022C001F0E0
:10108000ADDD00C020F0640E046E000E056E21C0C0
:1010900000F022C001F0A2DD0A0E046E000E056E03
:1010A0009DDD08C000F009C001F000C023F00A0E69
:1010B000046E000E056E21C000F022C001F08EDD2E
:1010C0000A0E046E000E056E89DD08C000F009C02E
:1010D00001F000C027F00A0E046E000E056E21C05C
:1010E00000F022C001F07ADD08C000F009C001F074
:1010F00000C026F0800E030A006E800E2218005CED
:1011000002E12150E70814E2828E829C828A828862
:1011100020C04AF0000E4B6EE0DC00C083FF060EDC
:101120000C6E300E0D6E0D2EFED70C2EFCD700006F
:10113000800E006E800E2218005C02E121506308D0
:1011400014E2829E828C828A828823C04AF0000E3A
:101150004B6EC3DC00C083FF060E0C6E300E0D6EAE
:101160000D2EFED70C2EFCD70000800E006E800ED8
:101170002218005C02E12150090814E2828E828C60
:10118000828A829827C04AF0000E4B6EA6DC00C00F
:1011900083FF060E0C6E300E0D6E0D2EFED70C2E3C
:1011A000FCD70000800E2218006E800E005C02E169
:1011B000000E215C0BE3828E828C829A828826C08C
:0E11C0004AF0000E4B6E89DC00C083FF120067
:0211CE0012000D
:0A11D000CFCF21F0000E226E1200B6
:1011DA008686869486828680390E846E150E0C6EFB
:1011EA00C60E0D6E0D2EFED70C2EFCD7000086867D
:1011FA008684869286803F0E846E150E0C6EC60E0D
:10120A000D6E0D2EFED70C2EFCD700008696868416
:10121A0086828680540E846E150E0C6EC60E0D6E76
:0C122A000D2EFED70C2EFCD70000120089
:101236008686869486828680390E846E150E0C6E9E
:10124600C60E0D6E0D2EFED70C2EFCD70000868620
:101256008684869286803F0E846E150E0C6EC60EB0
:101266000D6E0D2EFED70C2EFCD7000086968684BA
:1012760086828680710E846E150E0C6EC60E0D6EFD
:0C1286000D2EFED70C2EFCD7000012002D
:101292004A6A87DC00C01EF001C01FF03FDCCD0EA1
:1012A200046ECC0E056E4C0E066E810E076EA7EC18
:1012B20001F000C02AF001C02BF002C02CF003C0E4
:1012C2002DF01EC000F01FC001F028DC00C02EF07F
:1012D20001C02FF002C030F003C031F02AC000F08C
:1012E2002BC001F02CC002F02DC003F02EC004F080
:1012F2002FC005F030C006F031C007F0A7EC01F0B6
:10130200000E046E500E056E430E066E8F0E076EB3
:10131200A0EC02F000C02AF001C02BF002C02CF0B9
:1013220003C02DF05C0E006E8F0E016EC20E026EB7
:101332007C0E036E2EC004F02FC005F030C006F004
:1013420031C007F0A7EC01F02AC004F02BC005F071
:101352002CC006F02DC007F05AEC03F0000E046E0C
:10136200000E056E7C0E066E850E076E5AEC03F0BB
:0E13720037EC02F000C024F001C025F012009C
:1013800024D0010E856E69D0010E856E66D0010EE7
:10139000856E63D0030E856E60D0070E856E5DD0BE
:1013A0001F0E856E5AD03F0E856E57D07F0E856E0C
:1013B00054D0FF0E856E51D01C0E856E4ED01C0E83
:1013C000856E4BD01C0E856E48D0000E2B1802E1A6
:1013D000010E2A18D6E0000E2B1802E1020E2A1880
:1013E000D3E0000E2B1802E1030E2A18D0E0000E05
:1013F0002B1802E1040E2A18CDE0000E2B1802E192
:10140000050E2A18CAE0000E2B1802E1060E2A1853
:10141000C7E0000E2B1802E1070E2A18C4E0000EE8
:101420002B1802E1080E2A18C1E0000E2B1802E169
:10143000090E2A18BEE0000E2B1802E10A0E2A1827
:10144000BBE0000E2B1802E10B0E2A18B8E0000ECC
:0C1450002B1802E10C0E2A18B5E0120067
:10145C00F80ED56E0B0ECD6EFF0E926EC16A976AAA
:10146C00966A936A956A94809482948494869498EC
:10147C00949A949C949E986A186A196A800E006ECD
:10148C00800E1918005C02E118500E0837E318C0E2
:10149C002AF019C02BF02EDC00C085FF18C02AF0F2
:1014AC0019C02BF049DC00C081FF18C02AF019C00C
:1014BC002BF042DC00C084FF84CF83FF866A829EBF
:1014CC0082BE02D0829C01D0828C82BC02D0829AD5
:1014DC0001D0828A82BA02D0829801D08288020E10
:1014EC000B6E380E0C6EAD0E0D6E0D2EFED70C2E37
:1014FC00FCD70B2EFAD7184A192AC0D7856A540E76
:10150C000C6E1C0E0D6E0D2EFED70C2EFCD7000093
:10151C0035DC00C016F001C017F0D6CF15F03C0E2C
:10152C001502F3CF00F0F4CF01F000C021F001C0A0
:10153C0022F0E80E046E030E056EEEEC05F000C012
:10154C001CF001C01DF0800E2218006E800E030AE4
:10155C00005C02E1E80E215C18E252EC06F0D6CFFA
:10156C0015F03C0E1502F3CF21F0F4CF22F0010E52
:10157C004A6ED2EC05F00150010802E100505E0801
:10158C0002E353DE01D023DEDED71CC02AF01DC0DF
:10159C002BF0F0DE78DE00C021F001C022F062DD1D
:0E15AC0010DE10DEB0DCD66ACF6AA9D7FFD7FA
:1015BA003F0006005B004F0066006D007D000700DB
:1015CA007F006F0077007C0039005E0079007100AF
:1015DA007F003F001F001E001C00180010001800AA
:0E15EA001C001E001F003F007F0000007F005D
:1015F8008100C300E700FF00E700C300810081000D
:0C160800C300E700FF00E700C300810002
:1016140054000600DA00CE006600EC00FC008600F0
:04162400FE00EE00D6
:020000040030CA
:0D000100220F0E830181FFFFC0FFE0FF40D2
:00000001FF
